:020000040800F2
:10000000D00800203129000895070008970700084C
:100010009B0700089F070008A307000800000000D6
:10002000000000000000000000000000A70700081A
:10003000A907000800000000AB070008AD07000892
:100040004B2900084B2900084B290008AD26000861
:100050004B2900084B2900084B2900084B290008B0
:100060004B2900084B2900084B2900084B290008A0
:100070004B2900084B2900084B2900084B29000890
:100080004B2900084B2900084B2900084B29000880
:100090004B2900084B2900084B2900084B29000870
:1000A0004B2900084B2900084B2900084B29000860
:1000B0004B290008C51C0008F71F00084B29000841
:1000C0004B2900084B2900084B2900084B29000840
:1000D0004B290008A52800084B2900084B290008D7
:1000E0004B290008892600084B2900084B290008E5
:1000F0004B2900084B2900084B2900084B29000810
:100100004B2900084B2900084B2900084B290008FF
:100110004B2900084B2900084B2900084B290008EF
:100120004B2900084B2900084B2900084B290008DF
:100130004B2900084B2900084B2900084B290008CF
:100140004B2900084B2900084B2900084B290008BF
:100150004B2900084B2900084B2900084B290008AF
:100160004B2900084B2900084B2900084B2900089F
:100170004B2900084B2900084B2900084B2900088F
:100180004B2900084B29000800F002F800F061F844
:100190000AA090E8000C82448344AAF10107DA45E2
:1001A00001D100F056F8AFF2090EBAE80F0013F0D3
:1001B000010F18BFFB1A43F0010318478C3C0200E3
:1001C000AC3C02000A444FF0000C10F8013B13F065
:1001D000070408BF10F8014B1D1108BF10F8015BA0
:1001E000641E05D010F8016B641E01F8016BF9D193
:1001F00013F0080F1EBF10F8014BAD1C0C1B09D1EA
:100200006D1E58BF01F801CBFAD505E014F8016B5B
:1002100001F8016B6D1EF9D59142D6D370470000ED
:100220000023002400250026103A28BF78C1FBD8FF
:10023000520728BF30C148BF0B607047642905F0E2
:100240003781002070471FB505F0D5FA1FBD10B5E6
:1002500010BD05F097FA1146FFF7F5FF00F078F8AA
:1002600005F0B5FA03B4FFF7F2FF03BC02F0BAFAE7
:1002700010B5FE480068012828D1FD480068012813
:1002800004D001F0E9FE0120F9490860F94800684E
:10029000012804D101F042FF0120F7490860F54828
:1002A000006840B9F4480068012801D101F05EFF00
:1002B0000020F1490860EF48006808B901F0E1FE4C
:1002C000EC480068012801D101F065FFE7480068AB
:1002D00002280AD1E6480068022804D001F0DAFBBF
:1002E0000220E349086001F012FCE048006803289E
:1002F0000AD1DF480068032804D001F0BCFD0320C8
:10030000DB49086001F0F4FD10BD10B5DB48006862
:10031000012801D102F052F810BDD448006803282A
:1003200003DB0120D14908607047D0480068401CB9
:10033000CE49086000BFF7E7CE480068012803D126
:100340000020CC49086002E00120CA4908607047DB
:100350000EB50021042002F061F94FF4A06002F014
:1003600007FBA82002F0BCF94FF4E13002F048FA94
:1003700000F026FB01F06EFA01F06BF902F0BAF81A
:1003800045F25840A023802200210090084600F04A
:1003900037FBBB4880231A4600210090084601F035
:1003A0006EF800200C2145F258424FF6FF73CDE95C
:1003B00000210290B3A2822100F086FF40F6AC50EB
:1003C00002F0F0F9E1E1002001F062FAB1490880A1
:1003D00008460088002875D00846008806281AD2EA
:1003E000DFE800F019031A71FE91A04800680128A7
:1003F00001D1FFF7A1FF9D480068022801D101F05B
:1004000022FB9A480068032805D101F097FD0128D6
:1004100001D101F0CBFCB3E19448006801281ED162
:100420009648006808B9012000E000209349086060
:1004300008460068012809D14FF6E0700B236022BE
:1004400001210090562000F064FB08E045F258407E
:100450000B23602201210090562000F05AFB8E48A9
:10046000008858B981480068022807D101208A49CC
:10047000088042F2CF01092001F0F8FB874800888C
:1004800078B97A48006803280BD101F0B6FC01283E
:1004900007D18249088042F2CF01092001F07FFD97
:1004A0000FE072480068022801D101F0D6FA6F48C7
:1004B0000068032805D101F0A0FC012801D101F05A
:1004C0007FFC5DE15DE16948006801280CD174485A
:1004D0000068042804DA7248006801F0CCFE03E0EA
:1004E0006F48006801F009FF60480068022801D1E8
:1004F00001F033FB5D480068032803D169480068B8
:1005000001F024FD3CE159480068012869D15948AF
:1005100000680028FAD162480068401C6049086001
:1005200008460068042850DC08460068042809D101
:1005300045F2584012232222102100900A2000F098
:10054000E8FA21E05648006802281DDB544800689C
:10055000042819DA45F25840514900900968C1F160
:10056000050101EB41010A2303EBC1018AB24C49A9
:100570000968C1F1040101EB410103EBC10188B23B
:100580001223102100F0C5FA45480068E8B144483C
:100590000068042819D04FF4FC60414900900968B4
:1005A000C1F1040101EB41010A2303EBC1018AB24D
:1005B0003B490968C1F1030101EB410103EBC101B2
:1005C00088B21223102100F0A4FA354800680828E8
:1005D0004ADC33480068042846DB3148006801E003
:1005E000CBE041E008280CD145F2584021235422A9
:1005F0001F210090442000F08CFA00202849086058
:10060000BEE027480068052817DB25480068082851
:1006100013DA45F25840224900900988091F142333
:1006200003EB01118AB21E490988491F03EB01112E
:1006300088B221231F2100F06CFA1948006898B194
:100640004FF4FC60164900900988C91E142303EB7F
:1006500001118AB212490988091F03EB011188B2FE
:1006600021231F2100F055FA00481DE0040000205E
:1006700008000020140000201000002020000020AE
:100680000058000842616B612D2D2D2D42616B6178
:10069000210000000C0000200000002002000020CB
:1006A000180000201C0000200068022807D101F07B
:1006B000EEF9012803D101F0A9FA01F0EBF9334872
:1006C0000068032858D101F039FC012854D1304882
:1006D0000068401C2E4908600846006804284BDC6E
:1006E0000846006804280CD145F2584034232A22D9
:1006F00032210090122000F00CFA002024490860FA
:100700003EE023480068022819DB45F258402049A2
:1007100000900968C1F1050101EB4101122303EBCF
:10072000C1018AB21A490968C1F1040101EB410112
:1007300003EBC10188B23423322100F0EAF91448F6
:100740000068C8B14FF4FC60114900900968C1F11C
:10075000040101EB4101122303EBC1018AB20C49F0
:100760000968C1F1030101EB410103EBC10188B24A
:100770003423322100F0CDF902E0FFF7CEFD00BFB7
:1007800001E0FFF7C2FDFFF773FD1CE60400002047
:100790001C000020704700BFFEE700BFFEE700BF5F
:1007A000FEE700BFFEE770477047704770470000E4
:1007B0000CB50020019000907648006840F480302D
:1007C0007449086000BF7348006800F4003000906E
:1007D0000198401C0190009818B90198B0F5A04FFD
:1007E000F1D16C48006800F4003010B10120009095
:1007F00001E0002000900098012846D16548403073
:10080000006840F0805063494031086062480068E9
:1008100040F44040604908605E48083000685D4927
:10082000083108600846006840F400400860084647
:10083000006840F4A05008605848091F0860081F6D
:10084000006840F08070091F086000BF51480068D0
:1008500000F000700028F9D040F20570504908609F
:100860004C480830006820F003004A49083108600D
:100870000846006840F00200086000BF45480830A4
:10088000006800F00C000828F8D10CBD10B54548F0
:10089000006840F47000434908603E48006840F03A
:1008A00001003C49086000203A4908310860394895
:1008B00000683D490840374908603C48091D086008
:1008C000081F006820F48020091F086000203149BB
:1008D0000C310860FFF76CFF4FF000603149803940
:1008E000086010BD70B50020002202230024022100
:1008F000284D08352D6805F00C0020B1042806D0DD
:10090000082834D107E02A4D2A4E356033E02A4DBD
:10091000284E35602FE01F4D2D1D2D68C5F38054E6
:100920001C4D2D1D2D6805F03F0154B1224DB5FB26
:10093000F1F5184E361D3668C6F3881605FB06F22B
:1009400009E01B4DB5FBF1F5124E361D3668C6F3B6
:10095000881605FB06F20F4D2D1D2D68C5F30145C8
:100960006D1C6B00B2FBF3F5124E356003E0104DC9
:10097000104E356000BF00BF064D08352D68C5F329
:1009800003150E4E705D0B4D2D68C540094E356048
:1009900070BD00000038024000700040085440075D
:1009A000003C024088ED00E0FFFFF6FE103000241E
:1009B0000024F4002400002000127A002800002007
:1009C0001CB50121202002F067FB4FF4C0600090AD
:1009D00001208DF8040000208DF8060003208DF81A
:1009E000050001208DF807006946044802F0B6F8BA
:1009F0004FF4C061014802F02DF91CBD0014024003
:100A00002DE9F04706460F4614461D46DDF820A0A6
:100A1000681E83B2601E82B23946304600F0F8FD8F
:100A2000B8460EE0B14606E0504600F0D8FD09F1A8
:100A300001001FFA80F9A145F6DB08F101001FFA59
:100A400080F8A845EEDBBDE8F08770B504460D469A
:100A500016462B4622462946204600F0D9FD304650
:100A600000F0BDFD70BD2DE9FF4F85B081468A467F
:100A70000020039083460798A0EB09050898A0EB97
:100A80000A06CDF80890CDF804A0002D01DD01275D
:100A900005E00DB9002702E04FF0FF376D42002E50
:100AA00002DD4FF0010806E016B94FF0000802E041
:100AB0004FF0FF387642B54201DD2C4600E0344667
:100AC000002004901EE0019A91B2029A90B2129A0C
:100AD000FFF7BBFF039828440390B3440398A04258
:100AE00005DD0398001B0390029838440290A3454B
:100AF00004DDABEB040B0198404401900498401CCA
:100B000080B20490611C04988842DCDB09B0BDE827
:100B1000F08F2DE9F84305460E4617469846089C87
:100B200033463A46314628460094FFF79CFF434639
:100B30002A46314628460094FFF795FF43463A4639
:100B4000414628460094FFF78EFF43463A46314619
:100B500038460094FFF787FFBDE8F8832DE9F0479A
:100B600006460F46904699460025444641E07A1BCA
:100B700091B2321B90B24A46FFF767FF7A1B91B2DF
:100B8000321990B24A46FFF760FF3A1991B2721BD0
:100B900090B24A46FFF759FF3A1B91B2721B90B2CE
:100BA0004A46FFF752FF7A1991B2321990B24A467B
:100BB000FFF74BFF3A1B91B2721990B24A46FFF70A
:100BC00044FF3A1991B2721990B24A46FFF73DFFBD
:100BD0007A1991B2321B90B24A46FFF736FF6D1C6C
:100BE00005FB05F004FB040108FB08F0814200DD71
:100BF000641EA542BBDDBDE8F0872DE9FF5F064618
:100C0000894692469B460F9C002003900096204602
:100C1000E21704EB5272D2102146E31704EB537330
:100C2000DB10A4EBC3030BB1012300E000231A4443
:100C3000624392B2019205200290002571E005EB1B
:100C40008510FA4911F810009AF80010884265D111
:100C500005EB8510F54901EB400040789AF801104A
:100C600088425BD109EB0400401E83B23019401E5C
:100C700082B24946304600F0CBFC00274BE04FF0F3
:100C8000000842E01098F8B905EB8510E74901EB40
:100C90004000801CC05D012101FA08F1084018B134
:100CA000584600F09CFC02E00E9800F098FC039877
:100CB000401CC0B20390039890FBF4F104FB1100B8
:100CC000F8B90020039023E005EB8510D74901EB2C
:100CD0004000801CC05D012101FA08F1084020B1EC
:100CE0005A4649463046FFF7B0FE701C86B200985F
:100CF000301AA04205D1009E09F101001FFA80F9C7
:100D000006E008F1010000F0FF08B8F1080FB9DBB8
:100D100000BF781CC7B201988742B0DB00BF681CD7
:100D200085B2029885428ADBBDE8FF9F2DE9FF5F0F
:100D30000646894692469B460F9C002003900096EB
:100D40002046E21704EB5272D2102146E31704EB5F
:100D50005373DB10A4EBC3030BB1012300E00023AA
:100D60001A44624392B2019205200290002579E074
:100D700005EB850000EB4510AD4911F810009AF81D
:100D8000001088426BD105EB850000EB4510A849A7
:100D900001EB400040789AF8011088425FD109EBDE
:100DA0000400401E83B23019401E82B249463046CC
:100DB00000F02EFC00274FE04FF0000846E01098AE
:100DC00008BB05EB850000EB4510994901EB40009D
:100DD000801CC05D012101FA08F1084018B1584695
:100DE00000F0FDFB02E00E9800F0F9FB0398401CB8
:100DF000C0B20390039890FBF4F104FB110008BB10
:100E00000020039025E005EB850000EB45108849A4
:100E100001EB4000801CC05D012101FA08F108408F
:100E200020B15A4649463046FFF70FFE701C86B285
:100E30000098301AA04205D1009E09F101001FFA66
:100E400080F906E008F1010000F0FF08B8F1080F92
:100E5000B5DB00BF781CC7B201988742ACDB00BF8E
:100E6000681C85B20298854282DBBDE8FF9F2DE9B0
:100E7000FF5F0646894692469B460F9C00200390E2
:100E800000962046E21704EB5272D2102146E31777
:100E900004EB5373DB10A4EBC3030BB1012300E09D
:100EA00000231A44624392B2019205200290002569
:100EB00071E005EB05105F4911F810009AF8001079
:100EC000884265D105EB05105A4901EB4000407896
:100ED0009AF8011088425BD109EB0400401E83B2EE
:100EE0003019401E82B24946304600F091FB00277F
:100EF0004BE04FF0000842E01098F8B905EB051000
:100F00004C4901EB4000801CC05D012101FA08F151
:100F1000084018B1584600F062FB02E00E9800F05D
:100F20005EFB0398401CC0B20390039890FBF4F161
:100F300004FB1100F8B90020039023E005EB051035
:100F40003C4901EB4000801CC05D012101FA08F121
:100F5000084020B15A4649463046FFF776FD701CDE
:100F600086B20098301AA04205D1009E09F1010016
:100F70001FFA80F906E008F1010000F0FF08B8F15F
:100F8000080FB9DB00BF781CC7B201988742B0DBFD
:100F900000BF681C85B2029885428ADBBDE8FF9FCE
:100FA0002DE9FF5F0646894692469B460F9C00202E
:100FB000039000962046E21704EB5272D2102146AD
:100FC000E31704EB5373DB10A4EBC3030BB1012352
:100FD00000E000231A44624392B20192052002907D
:100FE000002581E005EB850000EBC500124911F8F2
:100FF00010009AF80010884273D105EB850000EBD1
:10100000C5000D4901EB400040789AF80110884274
:1010100067D109EB0400401E83B23019401E82B232
:101020004946304600F0F4FA002757E09A2D0108AF
:10103000282C01087E2B0108FC2A01084FF000082B
:1010400046E0109808BB05EB850000EBC500FE49A3
:1010500001EB4000801CC05D012101FA08F108404D
:1010600018B1584600F0BBFA02E00E9800F0B7FA4B
:101070000398401CC0B20390039890FBF4F104FB6A
:10108000110008BB0020039025E005EB850000EB74
:10109000C500ED4901EB4000801CC05D012101FA53
:1010A00008F1084020B15A4649463046FFF7CDFCCA
:1010B000701C86B20098301AA04205D1009E09F13A
:1010C00001001FFA80F906E008F1010000F0FF08B6
:1010D000B8F1080FB5DB00BF781CC7B20198874292
:1010E000ACDB00BF681C85B202988542FFF67AAF80
:1010F000BDE8FF9F2DE9FE4F8046894617469A4678
:10110000DDE90D460C9D36E00C2C09D153463A46DC
:1011100049464046CDE901460095FFF741FF25E0ED
:10112000102C09D153463A4649464046CDE901467E
:101130000095FFF79CFE19E0182C09D153463A465A
:1011400049464046CDE901460095FFF7EFFD0DE029
:10115000202C09D153463A4649464046CDE901463E
:101160000095FFF74AFD01E0BDE8FE8FBF1C08EBCC
:1011700004001FFA80F838780028C5D100BFF3E7D3
:101180002DE9FF5F80468A4617469B460F9D00204B
:101190000290CDF80080284605EBD071C1F34704DA
:1011A0002046E21704EB5272D2102146E31704EBFB
:1011B0005373DB10A4EBC3030BB1012300E0002346
:1011C0001A446A4392B20192A7F12000C7B20AEB17
:1011D0000500401E83B208EB0400401E82B2514657
:1011E000404600F015FA002669E00C2D07D107EB08
:1011F0004700964901EB8000805D03901BE0102DB5
:1012000005D1934800EB0710805D039013E0182D83
:1012100007D107EB47008F4901EB0010805D039079
:1012200009E0202D05D18C4800EB8710805D0390EC
:1012300001E0BDE8FF9F4FF000093AE01098C8B9FF
:10124000012000FA09F00399084018B1584600F04F
:10125000C6F902E00E9800F0C2F90298401CC0B234
:101260000290029890FBF4F104FB1100E8B9002011
:10127000029021E0012000FA09F00399084020B112
:101280005A4651464046FFF7E0FB08F101001FFABD
:1012900080F80098A8EB0000A04206D1DDF800809D
:1012A0000AF101001FFA80FA06E009F1010000F0DE
:1012B000FF09B9F1080FC1DB00BF701C86B20198AD
:1012C000864292DB00BFB4E72DE9FE4F06460F468B
:1012D00014469846DDE90D5ADDF8309010E0CDE96E
:1012E000015ACDF800902278434639463046FFF740
:1012F00047FF284605EBD07106EB61018EB2641CF6
:1013000020780028EBD1BDE8FE8F10B50246012001
:1013100000E050430B1EA1F10104E1B2F9D110BD70
:101320002DE9FF4F85B0074691461D46DDE913A61E
:1013300000200490304606EBD071C1F3470B002427
:1013400034E0281B401EC1B20A20FFF7DEFFB9FBC4
:10135000F0F00A21B0FBF1F201FB12080498A0B9E9
:10136000681EA04211DDB8F1000F0CD1002004FB73
:101370000B71CDE900A6029088B22022129B06993B
:10138000FFF7FEFE10E001200490002008F130017C
:10139000CAB204FB0B71CDE900A6029088B2129B81
:1013A0000699FFF7EDFE00BF601CC4B2AC42C8DB7B
:1013B00009B0BDE8F08F2DE9FF4F2DED020B2DEDAB
:1013C000028B83B00746B0EE408A1446DDE91486EE
:1013D000304606EBD071C1F3470A9FED200A28EE94
:1013E000000ABCEEC00A10EE100A1FFA80FB0025AE
:1013F0003DE0601B401EC1B20A20FFF786FFBBFB29
:10140000F0F00A21B0FBF1F201FB1209A01EA84284
:1014100010D10020A11E01FB0A71CDE900860290C7
:1014200088B22E220A9B0899FFF7AAFE681CC5B253
:10143000601CC4B2002009F13001CAB205FB0A7178
:10144000CDE9008602900BE0FC2A010808F70008AD
:101450007CFB00086C0101083C1301080000C84235
:1014600088B20A9B0899FFF78BFE681CC5B2A5429B
:10147000BFDB03B0BDEC028B06B0BDE8F08F2DE9F9
:10148000F05F0746884615461E46DDF82890002482
:1014900008EB0600401E83B27819401E82B2414616
:1014A000384600F0B5F8A24618E04FF0000B0FE008
:1014B00019F8140000F08DF8012101EB440119F82E
:1014C000010000F086F8641C0BF101001FFA80FB9C
:1014D000B345EDDB0AF101001FFA80FAAA45E4DB0F
:1014E000BDE8F09F1CB501215F2001F0D5FD4FF450
:1014F0008050009001208DF8040000208DF8060037
:1015000003208DF8050001208DF807006946CE48BC
:1015100001F024FB4FF48051CB4801F09BFB48F2D3
:101520003200009001208DF8040000208DF80600A4
:1015300003208DF8050001208DF807006946C34897
:1015400001F00CFB48F23201C04801F083FB4FF47C
:10155000A060009001208DF8040000208DF80600A6
:1015600003208DF8050001208DF807006946B84872
:1015700001F0F4FA4FF4A061B54801F06BFB1CBD1B
:1015800070B504460221B14801F066FB002519E060
:101590004FF48051AC4801F05FFB04F0800020B1B3
:1015A0002021AA4801F056FB03E02021A74801F0C2
:1015B00053FB4FF48051A44801F04CFB6006040E2D
:1015C000681CC5B2082DE3DB0221A04801F042FBF4
:1015D00070BD10B504462046FFF7D2FF10BD10B510
:1015E00004462012FFF7CCFFE0B2FFF7C9FF10BDA1
:1015F00010B504464FF40041944801F02DFB2046FD
:10160000FFF7BEFF4FF40041904801F023FB10BDEF
:101610002DE9F04104460D4616461F462A20FFF7E5
:10162000E7FFA11C88B2FFF7DAFFB11C88B2FFF711
:10163000D6FF2B20FFF7DCFF691C88B2FFF7CFFF36
:10164000791C88B2FFF7CBFF2C20FFF7D1FFBDE854
:10165000F08110B5FFF746FF10217C4801F0FCFA3D
:10166000642001F09FF81021784801F0F3FA64201B
:1016700001F098F84FF48071754801F0EBFA64209E
:1016800001F090F81120FFF7B3FF782001F08AF8FD
:10169000B120FFF7ADFF0520FFF79BFF3C20FFF7D0
:1016A00098FF3C20FFF795FFB220FFF7A1FF052030
:1016B000FFF78FFF3C20FFF78CFF3C20FFF789FFEF
:1016C000B320FFF795FF0520FFF783FF3C20FFF7CE
:1016D00080FF3C20FFF77DFF0520FFF77AFF3C20CD
:1016E000FFF777FF3C20FFF774FFB420FFF780FF80
:1016F0000320FFF76EFFC020FFF77AFF2820FFF7D7
:1017000068FF0820FFF765FF0420FFF762FFC12094
:10171000FFF76EFFC020FFF75CFFC220FFF768FFF6
:101720000D20FFF756FF0020FFF753FFC320FFF700
:101730005FFF8D20FFF74DFF2A20FFF74AFFC420EF
:10174000FFF756FF8D20FFF744FFEE20FFF741FF24
:10175000C520FFF74DFF1A20FFF73BFF3620FFF7AC
:1017600047FFC020FFF735FFE020FFF741FF0420CF
:10177000FFF72FFF2220FFF72CFF0720FFF729FF9D
:101780000A20FFF726FF2E20FFF723FF3020FFF768
:1017900020FF2520FFF71DFF2A20FFF71AFF282032
:1017A000FFF717FF2620FFF714FF2E20FFF711FF8A
:1017B0003A20FFF70EFF0020FFF70BFF0120FFF795
:1017C00008FF0320FFF705FF1320FFF702FFE120CA
:1017D000FFF70EFF0420FFF7FCFE1620FFF7F9FECF
:1017E0000620FFF7F6FE0D20FFF7F3FE2D20FFF792
:1017F000F0FE2620FFF7EDFE2320FFF7EAFE27206C
:10180000FFF7E7FE2720FFF7E4FE2520FFF7E1FEC4
:101810002D20FFF7DEFE3B20FFF7DBFE0020FFF769
:10182000D8FE0120FFF7D5FE0420FFF7D2FE1320DB
:10183000FFF7CFFE3A20FFF7DBFE0520FFF7C9FEDA
:101840002920FFF7D5FE10BD00180240000C024011
:10185000001002401CB50121112001F01DFC3C20AC
:10186000009000208DF8040003208DF80500012071
:101870008DF8070069463E4801F070F9012000909C
:1018800002208DF8070069463A4801F067F91CBD4F
:1018900010B5044614B10120374908703648007865
:1018A000002843D01021324801F0BAF9A0B1082134
:1018B0002F4801F0B5F978B104212D4801F0B0F9B5
:1018C00050B120212A4801F0ABF928B10121294863
:1018D00001F0A6F9012829D10A2000F063FF0020B9
:1018E000254908701021224801F09AF908B9012011
:1018F00010BD08211E4801F093F908B90220F7E74E
:1019000004211B4801F08CF908B90320F0E70121FC
:10191000184801F085F9012801D10420E8E72021C9
:10192000134801F07DF908BB0520E1E710211048BC
:1019300001F076F9012819D108210D4801F070F95C
:10194000012813D104210A4801F06AF901280DD1B8
:101950002021074801F064F9012807D10121054839
:1019600001F05EF910B90120034908700020BFE7BB
:10197000001002400000024038000020D8480068F3
:10198000B0F57A7F07D10020D5490860D5480068B6
:10199000401CD4490860D34800683C2807D1002087
:1019A000D0490860D0480068401CCF490860CE4844
:1019B00000683C2807D10020CB490860CB4800686C
:1019C000401CCA490860C9480068642802D1002048
:1019D000C6490860C2480068401CC1490860704799
:1019E00030B50A24B0FBF4F3B0FBF4F504FB1502A8
:1019F00003F130040C7002F130044C7030BD70B54E
:101A0000B74C2468642594FBF5F1B54C246894FB2D
:101A1000F5F605FB16440A2594FBF5F2B04C246854
:101A200094FBF5F605FB164301F13004047002F156
:101A30003004447003F13004847070BD30210170B3
:101A40004170817070470020A5490860A549086071
:101A5000A5490860A5490860704710B5A4480088EA
:101A600040B900220121A34802F0E2FB0120A04975
:101A700008800BE09E480088012807D1012211460A
:101A80009C4802F0D5FB00209949088010BD984879
:101A9000008870470EB5FFF7DCFD45F25840A023E3
:101AA0008022002100900846FEF7AAFF00201021A6
:101AB00045F258424FF47843CDE9002102908EA2BE
:101AC0000A210320FFF700FC8E4828231A466E21C6
:101AD00000900A20FFF7D3FC00200C2145F2584269
:101AE0000346CDE90021029087A26E213720FFF73F
:101AF000EBFB00200C2145F258420346CDE90021C2
:101B0000029084A27E213720FFF7DEFB0EBD0EB5CA
:101B1000824974480068FFF763FF8049C91E724814
:101B20000068FFF75DFF7D49891F70480068FFF777
:101B300057FF7A48C01CFFF762FF0020102145F2D2
:101B400058424FF6FF73CDE900210290734A921F6D
:101B50001E211220FFF7B8FB0EBD0EB570480068BD
:101B6000042802D100206E4908606D48006800EB2F
:101B700080006C4A02EB800000F10B0159480068BC
:101B8000FFF72EFF6648006800EB8000654A02EB15
:101B9000800000F1080154480068FFF721FF604809
:101BA000006800EB80005F4A02EB8000411D4F4857
:101BB0000068FFF715FF5A49096801EB8101594A8E
:101BC00002EB810101F10E00FFF719FF00200C214B
:101BD00045F25842CDE9002102905148006800EBDF
:101BE0008000504B03EB80024D48008800EB400022
:101BF0008000323081B24FF6FF731220FFF764FB92
:101C000047480068401C464908600EBD10B50024D6
:101C100026E004EB8400434A02EB800000F10B0154
:101C20000020FFF7DDFE04EB84003E4A02EB80005B
:101C300000F108010020FFF7D3FE04EB8400394ACD
:101C400002EB8000411D0020FFF7CAFE04EB840177
:101C5000344A02EB810101F10E00FFF7EFFE641C34
:101C6000032CD6DD00202E49086010BD7FB5054647
:101C70000C460121022001F058FA0295ADF804400B
:101C80000020ADF80600ADF80C0001A9194801F0DC
:101C90002EFE01221146174802F0CAFA012115480A
:101CA00001F0AEFE1D208DF8000001208DF801002E
:101CB00003208DF8020001208DF80300684600F033
:101CC0005CFE7FBD10B501210A4802F0C8FA012868
:101CD00005D1FFF753FE0121064802F0D1FA10BDED
:101CE000580000204C00002050000020540000202C
:101CF0005C0000200004004053544F5057415443AF
:101D0000480000002430010844657369676E65640B
:101D100020427900592E572E4A0000004200002030
:101D2000B00000205E00002010B5BA48006800280E
:101D300008DA40F2E730B7490860B7480068401E4B
:101D4000B5490860B4480068002807DA3B20B2496A
:101D50000860B2480068401EB0490860AF4800689B
:101D6000002807DA3B20AD490860AD480068401EF6
:101D7000AB490860A748006888B9A748006870B9EF
:101D8000A648006858B9A648006840B90022012159
:101D9000A44802F04DFA0120A349088010BD9D48D7
:101DA0000068401E9B49086000BFF7E70020994982
:101DB0000860994908609949086099490860704726
:101DC00010B59948008840B900220121954802F0D9
:101DD0002FFA0120944908800BE0934800880128DD
:101DE00007D1012211468F4802F022FA00208E49C5
:101DF000088010BD8C48008870478648006850B93C
:101E00008548006838B98548006820B9844800686A
:101E100008B9002070470120FCE730B50A24B0FB68
:101E2000F4F3B0FBF4F504FB150203F130040C707D
:101E300002F130044C7030BD70B5764C24686425D6
:101E400094FBF5F1734C246894FBF5F605FB1644FE
:101E50000A2594FBF5F26F4C246894FBF5F605FB1C
:101E6000164301F13004047002F13004447003F1B0
:101E70003004847070BD0EB5FFF7EBFB45F258409F
:101E8000A0238022002100900846FEF7B9FD002023
:101E9000102145F258424FF47843CDE900210290D9
:101EA00062A20A210320FFF70FFA634828231A468B
:101EB0006E2100900A20FFF7E2FA00200C2145F283
:101EC00058420346CDE9002102905CA26E213720E2
:101ED000FFF7FAF900200C2145F258420346CDE9FC
:101EE0000021029058A27E213720FFF7EDF90EBDA8
:101EF0000EB5584948480068FFF78FFF5549C91E7D
:101F000046480068FFF789FF5249891F4448006826
:101F1000FFF783FF4F48C01CFFF78EFF0020102102
:101F200045F258424FF6FF73CDE900210290494A2D
:101F3000921F1E211220FFF7C7F90EBD00B5FFF753
:101F400059FF012800D100BD0020FCE701280BD17A
:101F500031490968491C304A1160114609683C2919
:101F60001CD10021116019E002280AD12B4909680F
:101F7000491C2A4A11601146096879B9002111608B
:101F80000CE003280AD126490968491C244A11603B
:101F900011460968642901D10021116070477FB59D
:101FA00005460C460121042001F0BFF80295ADF86A
:101FB00004400020ADF80600ADF80C0001A9194856
:101FC00001F095FC01221146164802F031F9012179
:101FD000144801F015FD1E208DF8000002208DF838
:101FE000010004208DF8020001208DF803006846EE
:101FF00000F0C3FC7FBD10B501210A4802F02FF9A3
:10200000012805D1FFF790FE0121064802F038F9BA
:1020100010BD0000D0000020C4000020C800002037
:10202000CC00002000080040B4000020434F554E73
:1020300054494E4700000000A43C0108496E7370EB
:1020400069726564204279004F757245444120549D
:1020500065616D00BC00002008B5FFF7FAFA45F293
:102060005840A0238022002100900846FEF7C8FCBB
:10207000FD4880231A46242100900020FFF7FFF935
:1020800008BD0EB5F949002002F0A2FBF7488078A0
:102090000090F64843780278F5A1F94803F0CCF9AE
:1020A0000020102145F258424FF6FF73CDE9002180
:1020B0000290F34A01210A20FFF706F9F1490020B6
:1020C00002F020FCEF4880780090EE484378C27818
:1020D000EDA1F24803F0B0F900200C2145F258427E
:1020E0004FF6FF73CDE900210290EC4A14210A203B
:1020F000FFF7EAF800200C2145F25842CDE9002113
:102100000290E0480078401EE54901EB80024FF65E
:10211000E07314215020FFF7D7F80EBD0EB54FF431
:10212000784015237422012100906020FEF7F1FC15
:102130000020102145F25842CDE900210290CB4801
:1021400000780C2801DCD7A000E0D7A002464FF4AD
:10215000784302216220FFF7B7F8D44880231A465B
:10216000202100900020FFF78AF90EBD08B5FFF787
:1021700070FA45F25840A0238022002100900846C2
:10218000FEF73EFCB84880231A462021009000202C
:10219000FFF775F908BD0EB5B449002002F018FB31
:1021A000B24800780C280CDDB04880780090AF4829
:1021B00043780078A0F10C02ADA1B14803F03CF9DE
:1021C00009E0AA4880780090A84843780278A8A13E
:1021D000AB4803F031F90020102145F258424FF688
:1021E000FF73CDE900210290A54A01210A20FFF7E3
:1021F0006BF8A449002002F085FBA248807800908B
:10220000A0484378C278A0A1A44803F015F90020A3
:102210000C2145F258424FF6FF73CDE900210290A0
:102220009E4A14210A20FFF74FF800200C2145F2A6
:102230005842CDE90021029092480078401E98490A
:1022400001EB80024FF6E07314215020FFF73CF8B9
:102250000EBDF8B504460D4617461E468DF80040E3
:102260008DF801508DF802708DF8036069460020EA
:1022700002F044FAF8BD10B504468D487B49096860
:102280000160012C1AD0022C0CD0032C1AD100783A
:10229000401C8749087008460078182801D10020A2
:1022A00008700FE082484078401C81494870084619
:1022B00040783C2801D10020487003E000207C4990
:1022C000887000BF00BF7A4B9A785978187800233D
:1022D000FFF7BFFF10BDF8B504460D4617461E4672
:1022E0008DF802708DF801508DF800608DF8034074
:1022F0006946002002F0A0FAF8BD70B504466D48AA
:10230000604909680160042C06D0052C10D0062C09
:102310001AD0072C49D13CE06648C078401C65497A
:10232000C8700846C078632801D10020C8703CE01E
:1023300060484078401C5F494870084640780D2846
:1023400001D10120487030E05A488078401C59493A
:102350008870C878C11700EB9171891061B9554830
:10236000807854494978544A52F8211088420FD154
:102370000120504988700BE04E4880784D494978DB
:102380004E4A52F82110884202D1012049498870F2
:102390000BE048480078401C464908700846007821
:1023A000082801D10120087000BF00BF414D2B78E3
:1023B000AA786978E878FFF78EFF70BD2DE9FC5F99
:1023C0003FA0019000200090394828490968016029
:1023D000002000903C48008800F4004000287DD098
:1023E000002400BF0CE03948015D0198005D814286
:1023F00004D037A003F014F8BDE8FC9F601C84B241
:10240000042CF0DB30480088C0F30D0B2F484079D6
:10241000A0F130052D488079A0F1300605EB85004C
:1024200006EB4000224908702848007AA0F13007E6
:102430002648407AA0F1300807EB870008EB4000FF
:1024400048702248C07AA0F130092048007BA0F1F2
:10245000300A09EB89000AEB400088700B469A7835
:102460005978187800233AE024490108D400002064
:10247000253032643A253032643A25303264000027
:1024800080010020D80000203230253032642D2514
:102490003032642D253032640000000094010020A9
:1024A000E4000020414D0000504D00002CBE01080A
:1024B000DC000020E00000203001002000010020AE
:1024C00054494D453A0000006C010020A80100204D
:1024D0000D0A4552524F52210D0A000002E0FFF74B
:1024E000B8FE00BF002079490880642000F05AF946
:1024F00000BF81E73EB541F6FF740121080700F0F7
:1025000014FE012002F0DFFE002002F053FD45F230
:102510005001884231D0012000F05BFC04E0601CD7
:1025200084B20A2000F03EF9412000F00BFC0028A4
:10253000F5D00CB901203EBD4FF4807000F04AFD8B
:10254000012000F062FD7F200190FF20029000201A
:102550000090684602F037F800231E221921172048
:10256000FFF777FE0623082204211720FFF7B3FEAA
:1025700045F25001002002F010FD0020DBE7F0B52D
:1025800087B004460D4616461F4600214FF4807062
:1025900002F092FA8DF800508DF801608DF802700B
:1025A00000208DF803008DF810404FF0804003901C
:1025B000002002900098019001AA4FF48071002041
:1025C00002F0C3F94FF4805002F0D6FD4FF4003012
:1025D00002F065FE0121080302F062FD01210802FC
:1025E00002F06AFA4FF40030059000208DF81800D0
:1025F00008208DF8190001208DF81A0005A802F0B6
:10260000DDFD2920324908700220487088700120C1
:10261000C870084600F0B1F907B0F0BD7CB50546BA
:102620000C46002002F0CDFA284602F0A5FA20461A
:1026300002F0B7FA4FF4804002F09EFD4FF48000A4
:1026400002F02DFE0121880302F02AFD012002F094
:10265000B8FA4FF48000009000208DF804000820A4
:102660008DF8050001208DF80600684602F0A6FDF1
:102670000320174908700220487088700120C87034
:10268000084600F07AF97CBD10B54FF4807002F076
:1026900036FD012805D1000202F042FD0DA002F036
:1026A000BFFE4FF4003002F0FAFD10BD10B54FF43C
:1026B000806002F024FD012802D1800202F030FD8A
:1026C0004FF4800002F0EBFD10BD00006C01002013
:1026D00060010020414C41524D2041210D0A000073
:1026E00010B504466FF0040000F094F9E11704EB14
:1026F0005171C1F3C701394A11701046007800EBDF
:102700004001C1EBC0104FF6FF7101EAC00034492F
:10271000088010BD0146314A12784A434FF0E02349
:102720005A6100229A611A46126942F001021A6146
:1027300000BF4FF0E022106900F001021AB100F46E
:102740008032002AF5D04FF0E022126922F0010217
:102750004FF0E0231A6100229A6170470146204A37
:1027600012884A434FF0E0235A6100229A611A46C8
:10277000126942F001021A6100BF4FF0E0221069B5
:1027800000F001021AB100F48032002AF5D04FF0B7
:10279000E022126922F001024FF0E0231A610022C8
:1027A0009A61704770B504464FF4077094FBF0F0DF
:1027B000C6B24FF4077094FBF0F100FB114085B2F4
:1027C00005E04FF40770FFF7C9FF701EC6B2002E78
:1027D000F7D115B12846FFF7C1FF70BD6401002095
:1027E00066010020014600BF704700BF4C4A1288B6
:1027F00002F04002002AF9D0C2B2494B9A807047D9
:1028000010B588B004460121084600F045FC0121BE
:10281000102000F09BFC07220921424800F029FA11
:1028200007220A213F4800F024FA4FF4C0600690C6
:1028300002208DF81C008DF81D0000208DF81E0070
:1028400001208DF81F0006A9364800F087F9029490
:102850000020ADF80C00ADF80E00ADF81000ADF89A
:1028600014000C20ADF8120002A92D4800F0CFFD95
:1028700001212B4800F053FE012240F22551284847
:1028800000F003FF25208DF8040003208DF80500DB
:102890008DF8060001208DF8070001A800F06DF802
:1028A00008B010BD10B540F225511D4800F028FFBA
:1028B00010B31B4800F062FEC4B21B48008800F44D
:1028C0000040C8B91848008800F4804060B10A2C64
:1028D00003D000201449088020E01348008840F409
:1028E00000401149088019E00D2C06D10E480088DF
:1028F00040F480400C49088010E00B480088C0F389
:102900000D000A490C5408480088401C06490880FC
:1029100008460088C72801DD0020088010BD00009F
:1029200000100140000002406C010020A8010020BE
:102930000948804709480047FEE7FEE7FEE7FEE753
:10294000FEE7FEE7FEE7FEE7FEE7FEE7044805498F
:10295000054A064B704700008D08000889010008F1
:10296000D0020020D0080020D0040020D004002095
:1029700032490143324A1160704770B5002100238B
:102980000F22C4781CB32E4C246804F4E064C4F510
:10299000E064C4F30721C1F10404E3B20A414478BE
:1029A0009C40E1B28478144021430C07210E254C51
:1029B00005786155047804F01F050124AC400578C2
:1029C0006D11AD0005F1E025C5F8004109E004787E
:1029D00004F01F050124AC401B4D0678761145F824
:1029E000264070BD194A0A400243154B1B1F1A604E
:1029F000704739B1124A121D12680243104B1B1D59
:102A00001A6006E00E4A121D126882430C4B1B1D11
:102A10001A607047042808D14FF0E021096941F09D
:102A200004014FF0E022116107E04FF0E021096955
:102A300021F004014FF0E022116170470000FA0517
:102A40000CED00E000E400E080E100E080FFFF1F0B
:102A500010B504469848844208D10121084600F088
:102A600086FB0021012000F082FB76E0934884423F
:102A700008D10121022000F07AFB0021022000F0A1
:102A800076FB6AE08E48844208D10121042000F0E0
:102A90006EFB0021042000F06AFB5EE0894884425E
:102AA00008D10121082000F062FB0021082000F07D
:102AB0005EFB52E08448844208D10121102000F0DE
:102AC00056FB0021102000F052FB46E07F48844274
:102AD00008D10121202000F04AFB0021202000F035
:102AE00046FB3AE07A48844208D10121402000F0B8
:102AF0003EFB0021402000F03AFB2EE07548844266
:102B000008D10121802000F032FB0021802000F05C
:102B10002EFB22E07048844208D10121801500F08C
:102B200026FB0021A01500F022FB16E06B48844232
:102B300008D10121401500F01AFB0021601500F0BA
:102B400016FB0AE06648844207D10121001500F017
:102B50000EFB0021201500F00AFB10BDF0B50A465F
:102B600000210023002400BF3DE0012505FA01F308
:102B7000156805EA03049C4234D105684F0003261A
:102B8000BE40B543056015794E00B5400668354333
:102B900005601579012D02D01579022D16D18568B1
:102BA0004F000326BE40B543856055794E00B540C1
:102BB000866835438560456801268E40B54345608B
:102BC000456896798E40B6B235434560C5684F007A
:102BD0000326BE40B543C560D5794E00B540C668F2
:102BE0003543C560491C1029BFD3F0BD4FF6FF71B6
:102BF00001600021017141718171C171704708B597
:102C00004FF480320092009A0A430092009AC26107
:102C1000C161009AC261C2690092C269009208BD96
:102C20000246002013690B400BB1012000E0002098
:102C300070470146086980B2704702460020536918
:102C40000B400BB1012000E00020704701464869AD
:102C500080B2704701837047418370470AB1018396
:102C600000E0418370474161704742694A404261D8
:102C70007047F0B5002300244D07ED0E02FA05F36E
:102C8000CE1000F1200555F826504E07F70E0F26FE
:102C9000BE40B543CF1000F1200646F82750CE10B5
:102CA00000F1200555F8265045EA0304CE1000F146
:102CB000200545F82640F0BD000002400004024017
:102CC00000080240000C02400010024000140240C4
:102CD00000180240001C0240002002400024024074
:102CE00000280240F948006840F00100F7490860F8
:102CF0000020F64908310860F4480068F4490840AB
:102D0000F2490860F348091D0860F348EF4984312F
:102D10000860F0481038091D0860EC48006820F48D
:102D20008020EA4908600020E8490C310860E74942
:102D30008C31086070470021E44A921C11701146E2
:102D40000870704710B501460022002300204A1188
:102D5000012A02D1DD4C236808E0022A03D1DB4CB2
:102D60007034236802E0D94C7434236801F01F02E8
:102D7000012494401C400CB1012000E0002010BD53
:102D800038B5002000900024002500BF3120FFF757
:102D9000D9FF05460098401C00900098B0F5A04F60
:102DA00001D0002DF2D03120FFF7CCFF08B1012473
:102DB00000E00024204638BD01460020C34A1068C8
:102DC00020F0F80040EAC10010607047C349086075
:102DD00070470021BD4A703211701170012802D075
:102DE00004280AD104E00121B84A7032117005E0CC
:102DF0000521B64A7032117000E000BF00BF704775
:102E0000B7490860704770B5049C41EA82150126F5
:102E1000C6EB530645EA0645054345EA0465AB4E55
:102E2000361D356070BDAD4908667047820142EAC3
:102E30000172A64B84331A607047A84988667047B0
:102E400010B5830143EA016343EA02739F4C88345F
:102E5000236010BDA14908677047A049C864704746
:102E600002460020994B0833186820F0EC6042EAD3
:102E700001031843954B0833186070470246002041
:102E8000924B0833186820F0784042EA0103184357
:102E90008E4B083318607047014600208B4A083279
:102EA000106820F00300084310607047874808301E
:102EB000006800F00C00704701460020834A083289
:102EC000106820F0F00008431060704701460020B1
:102ED0007E4A0832106820F4E050084310607047C2
:102EE00001460020794A0832106820F4604040EA28
:102EF000C10010607047F0B50021002200240225B7
:102F000000260223714F08373F6807F00C0121B1FA
:102F1000042905D0082937D105E0724F076036E053
:102F2000714F076033E0694F3F1D3F68C7F380561C
:102F3000664F3F1D3F6807F03F036EB16A4FB7FB16
:102F4000F3F7DFF888C10CF1040CDCF800C0CCF317
:102F5000881C07FB0CF40CE0624FB7FBF3F7DFF8BB
:102F60006CC10CF1040CDCF800C0CCF3881C07FB2E
:102F70000CF4564F3F1D3F68C7F301477F1C7D008F
:102F8000B4FBF5F7076002E0564F076000BF00BFD3
:102F90004E4F08373F6807F0F0010909534F7A5C3C
:102FA0000768D7404760494F08373F6807F4E0514A
:102FB000890A4E4F7A5C4768D7408760434F08378D
:102FC0003F6807F46041490B484F7A5C4768D74037
:102FD000C760F0BD002100F44072B2F5407F0AD115
:102FE0003A4A0832116821F4F811414A024011436B
:102FF000364A08321160354A70321268C0F30B034A
:103000001A43324B70331A607047354944390860AF
:103010007047334940390860704736490860704747
:1030200001460020294A8C32106820F01F004A1EF9
:103030001043264A8C321060704701460020234A14
:103040008C32106820F4F8504A1E40EA02201F4AD1
:103050008C3210607047014600201C4A8C32106888
:1030600020F4401008431060704701460020174AC2
:103070008C32106820F4400008431060704701460D
:103080000020124A8C32106820F44030084310604F
:10309000704719490860704739B10C4A30321268DC
:1030A00002430A4B30331A6006E0084A3032126895
:1030B0008243064B30331A607047F9B1034A343209
:1030C00012680243014B34331A601CE0003802409E
:1030D000FFFFF6EA103000240030002000004742D5
:1030E000800E47420024F40000127A006E01002096
:1030F000FFFCFF0F5C014742E01147428F4A126814
:1031000082438E4B1A60704739B18C4A121D126887
:1031100002438A4B1B1D1A6006E0884A121D126882
:103120008243864B1B1D1A60704739B1834A0C32AB
:1031300012680243814B0C331A6006E07F4A0C325E
:10314000126882437D4B0C331A60704739B17B4A59
:10315000103212680243794B10331A6006E0774A46
:10316000103212688243754B10331A60704739B1C0
:10317000724A243A12680243704B243B1A6006E0FC
:103180006E4A243A126882436C4B243B1A607047A3
:1031900039B16A4A203A12680243684B203B1A60F0
:1031A00006E0664A203A12688243644B203B1A606C
:1031B000704739B1614A1C3A126802435F4B1C3BAD
:1031C0001A6006E05D4A1C3A126882435B4B1C3B66
:1031D0001A60704739B1594A143A12680243574B82
:1031E000143B1A6006E0554A143A12688243534B66
:1031F000143B1A60704739B1504A103A12680243C2
:103200004E4B103B1A6006E04C4A103A126882435B
:103210004A4B103B1A60704739B1484A1C32126859
:103220000243464B1C331A6006E0444A1C321268C3
:103230008243424B1C331A60704739B13F4A2032F7
:10324000126802433D4B20331A6006E03B4A2032AD
:1032500012688243394B20331A60704739B1374ABC
:10326000243212680243354B24331A6006E0334A95
:10327000243212688243314B24331A60704739B1CB
:103280002E4A2C32126802432C4B2C331A6006E073
:103290002A4A2C3212688243284B2C331A6070471A
:1032A00039B1264A303212680243244B30331A6057
:1032B00006E0224A303212688243204B30331A60D3
:1032C0007047012808D11D493C31096841F00801C7
:1032D0001A4A3C32116007E018493C31096821F074
:1032E0000801164A3C321160704739B1134A273A37
:1032F00012780243114B273B1A7006E00F4A273A17
:10330000127882430D4B273B1A7070470B484030B0
:10331000006840F0807009494031086070470146FC
:103320000020064A283A12680A400AB1012000E04B
:103330000020704701492639087070473438024030
:1033400010B50446FA48844208D101211020FFF745
:1033500052FF00211020FFF74EFF57E0F54884424E
:1033600009D101214804FFF735FF00214FF4003057
:10337000FFF730FF4AE0F048844209D10121880478
:10338000FFF728FF00214FF48020FFF723FF3DE0E7
:10339000EA48844209D10121C804FFF71BFF00213C
:1033A0004FF40020FFF716FF30E0E548844209D1D2
:1033B00001210805FFF70EFF00214FF48010FFF7F1
:1033C00009FF23E0DF48844208D101212020FFF7D4
:1033D00012FF00212020FFF70EFF17E0DA48844299
:1033E00009D101218807FFF7F5FE00214FF0804049
:1033F000FFF7F0FE0AE0D548844207D101214005DD
:10340000FFF7E8FE00216005FFF7E4FE10BD2DE99F
:10341000FF4705460E460024A14600BFA046B089DE
:1034200000B100BF2C8A24F44054F08804432C825D
:10343000AC8941F20C608443B088318908437189BA
:1034400008430443AC81AC8A24F44074B08904433B
:10345000AC826846FFF74FFDB548854202D0B948B7
:10346000854202D1DDF80C9001E0DDF80890A889D2
:1034700000F4004040B109EBC90000EB09103168CD
:103480004900B0FBF1F707E009EBC90000EB0910B8
:1034900031688900B0FBF1F76420B7FBF0F004015C
:1034A0002009642101FB1078A88900F4004040B194
:1034B000322000EBC800B0FBF1F000F0070004433D
:1034C00008E0322000EB08106421B0FBF1F000F0BE
:1034D0000F0004432C81BDE8FF874FF416510160B3
:1034E00000218180C18001810C21418100218181E5
:1034F000704710B502460020108A20F470600B88D7
:103500004C8823438C882343CC8823431843108260
:1035100010BD0021018041808180C180704721B1B0
:10352000828942F40052828104E082894DF6FF7361
:103530001A4082817047028B02F47F420283028B21
:103540000A430283704721B1828942F4004282819A
:1035500003E08289C2F30E028281704721B1828A20
:1035600042F40062828204E0828A4FF2FF731A40C2
:1035700082827047C1F308028280704701468888C2
:10358000C0F308007047028A4FF6F0731A400282B7
:10359000028A0A430282704721B1828942F0020204
:1035A000828104E082894FF6FD731A408281704760
:1035B00082894FF2FF731A40828182890A43828195
:1035C0007047028A4FF6DF731A400282028A0A436A
:1035D0000282704721B1028A42F48042028204E0F2
:1035E000028A4BF6FF731A4002827047818941F0CC
:1035F00001018181704721B1828A42F008028282F2
:1036000004E0828A4FF6F7731A4082827047028B79
:10361000D2B20283028B42EA01220283704721B1B7
:10362000828A42F02002828204E0828A4FF6DF73AF
:103630001A408282704721B1828A42F0100282824F
:1036400004E0828A4FF6EF731A4082827047828AC2
:103650004FF6FB731A408282828A0A438282704745
:1036600021B1828A42F00202828204E0828A4FF60D
:10367000FD731A40828270471AB1838A0B4383829A
:1036800002E0838A8B4383827047F0B503460024AF
:1036900000260025002040F66A17B94200D100BF7D
:1036A0001846C1F3421401F01F06012707FA06F578
:1036B000012C01D10C3004E0022C01D1103000E0CB
:1036C00014301AB107682F43076002E00768AF4360
:1036D0000760F0BD02460020B1F5007F00D100BFB9
:1036E00013880B400BB1012000E00020704701F46B
:1036F0000072B2F5007F00D100BFCA43028070475C
:1037000070B50246002400230025002040F66A160A
:10371000B14200D100BFC1F3421501F01F030126E1
:1037200006FA03F3012D13D19689334017E0000008
:10373000001001400044004000480040004C0040A0
:10374000005000400014014000780040007C004020
:10375000022D02D1168A334001E0968A33400C12C2
:10376000012606FA04F41688344013B10CB1012086
:1037700000E0002070BD10B50022002340F66A145E
:10378000A14200D100BF0A1201249440A3B2DC433D
:10379000048010BD10B50446FE48844208D10121C2
:1037A0000846FFF728FD00210120FFF724FD9DE0DA
:1037B000B4F1804F08D101210846FFF70BFD00212D
:1037C0000120FFF707FD91E0F348844208D1012171
:1037D0000220FFF7FFFC00210220FFF7FBFC85E041
:1037E000EE48844208D101210420FFF7F3FC0021B8
:1037F0000420FFF7EFFC79E0E948844208D1012179
:103800000820FFF7E7FC00210820FFF7E3FC6DE04C
:10381000E448844208D101211020FFF7DBFC00219D
:103820001020FFF7D7FC61E0DF48844208D1012176
:103830002020FFF7CFFC00212020FFF7CBFC55E034
:10384000DA48844208D101210220FFF7D4FC00218C
:103850000220FFF7D0FC49E0D548844209D101217C
:103860000804FFF7C8FC00214FF48030FFF7C3FCC9
:103870003CE0D048844209D101214804FFF7BBFC59
:1038800000214FF40030FFF7B6FC2FE0CA48844215
:1038900009D101218804FFF7AEFC00214FF48020FC
:1038A000FFF7A9FC22E0C548844208D1012140204D
:1038B000FFF790FC00214020FFF78CFC16E0C04889
:1038C000844208D101218020FFF784FC0021802060
:1038D000FFF780FC0AE0BB48844207D10121801534
:1038E000FFF778FC0021A015FFF774FC10BD002243
:1038F0000288A84B98420ED0AC4B98420BD0B0F146
:10390000804F08D0A44B984205D0A44B984202D0D7
:10391000A34B984204D14FF68F731A404B881A4339
:10392000A04B984207D0A04B984204D04FF6FF43DB
:103930001A400B891A4302804B68C3620B880385C7
:10394000944B984202D0994B984201D18B7A0386CE
:103950000123838270474FF0FF31416000210180D5
:1039600001814180817270470185828270470A46D9
:10397000002101884FF68F73194011430180704771
:1039800041627047C16270470146486A704701460C
:10399000088D704721B1028842F00202028004E0E3
:1039A00002884FF6FD731A400280704721B10288E9
:1039B00042F00402028004E002884FF6FB731A40D2
:1039C0000280704721B1028842F08002028004E048
:1039D00002884FF67F731A400280704702884FF6C4
:1039E000F7731A40028002880A43028070470288F7
:1039F0004FF6FF431A40028002880A430280704754
:103A000021B1028842F00102028004E002884FF6F0
:103A1000FE731A400280704770B500240022002314
:103A2000058C4FF6FE7635400584028C8388048B26
:103A30004FF68F752C40B51E2C400D882C43751EFB
:103A40002A408D892A434D882A43524DA84202D0EC
:103A5000564DA84213D14FF6F7752A40CD892A4317
:103A60004FF6FB752A408D882A434FF6FF652B40A1
:103A70004FF6FF552B400D8A2B434D8A2B438380F5
:103A800004838D684563028470BD70B500240022F4
:103A90000023058C4FF6EF7635400584028C838831
:103AA000048B48F6FF752C404FF6FF452C400D88DF
:103AB0004FF6FF7606EA05252C434FF6DF752A40C0
:103AC0008D8906EA05152A434D8806EA05152A431D
:103AD000304DA84202D0354DA8421DD14FF67F751A
:103AE0002A40CD894FF6FF7606EA05152A434FF6A0
:103AF000BF752A408D8806EA05152A434FF6FF3523
:103B00002B404FF2FF752B400D8A06EA85052B43AB
:103B10004D8A06EA85052B43838004838D6885637F
:103B2000028470BD70B5002400220023058C4FF67E
:103B3000FF6635400584028C8388848B4FF68F7531
:103B40002C404FF6FC752C400D882C434FF6FF554A
:103B50002A408D894FF6FF7606EA05252A434D88CF
:103B600006EA05252A430B4DA84202D00F4DA84274
:103B700038D14FF2FF752A40CD894FF6FF7606EA1D
:103B800005252A434FF6FF352A408D8806EA05258C
:103B90002A4319E0000001400004004000080040F2
:103BA000000C0040001000400014004000040140E0
:103BB000004001400044014000480140001800401E
:103BC000001C0040002000404EF6FF752B404DF6D3
:103BD000FF752B400D8A06EA05152B434D8A06EA30
:103BE00005152B43838084838D68C563028470BD73
:103BF00070B5002200230024058C4EF6FF76354078
:103C00000584038C8488828B48F6FF752A404FF622
:103C1000FF452A400D884FF6FF7606EA05252A4320
:103C20004DF6FF752B408D8906EA05352B434D88EF
:103C300006EA05352B43FE4DA84202D0FD4DA842B1
:103C400008D14BF6FF752C400D8A4FF6FF7606EA39
:103C500085152C43848082838D680564038470BD40
:103C6000002101804180818081608181C181018248
:103C70004182704770B50346002000241846183072
:103C800001258D40ACB21D8CA5431D8409B10829C6
:103C90000AD100EB610005684FF68F76354005606C
:103CA0000568154305600FE00D1FC5F34E05284458
:103CB000056848F6FF763540056005684FF6FF76E3
:103CC00006EA02263543056070BD41637047816393
:103CD0007047C1637047016470470A460021018B39
:103CE0004FF68F7319401143018370470A46002134
:103CF000018B48F6FF7319404FF6FF7303EA022366
:103D00001943018370470A460021818B4FF68F7358
:103D100019401143818370470A460021818B48F680
:103D2000FF7319404FF6FF7303EA0223194381839F
:103D300070470A460021018B4FF6F7731940114373
:103D4000018370470A460021018B4FF2FF7319402F
:103D50004FF6FF7303EA02231943018370470A46B3
:103D60000021818B4FF6F77319401143818370470F
:103D70000A460021818B4FF2FF7319404FF6FF7303
:103D800003EA02231943818370470A460021018B0D
:103D90004FF6FB7319401143018370470A46002117
:103DA000018B4FF6FF3319404FF6FF7303EA0223EE
:103DB0001943018370470A460021818B4FF6FB733C
:103DC00019401143818370470A460021818B4FF6C9
:103DD000FF3319404FF6FF7303EA0223194381832F
:103DE00070470A460021018B4FF67F73194011433B
:103DF000018370470A460021018BC1F30E014FF683
:103E0000FF7303EA02231943018370470A46002126
:103E1000818B4FF67F7319401143818370470A46A7
:103E20000021818BC1F30E014FF6FF7303EA0223D9
:103E30001943818370470A460021018C4FF6FD73B8
:103E400019401143018470470A460021018C4FF646
:103E5000F77319401143018470470A460021018C11
:103E60004FF6DF7319404FF6FF7303EA021319434D
:103E7000018470470A460021018C4FF67F73194078
:103E80004FF6FF7303EA02131943018470470A4691
:103E90000021018C4FF6FF5319404FF6FF7303EAE0
:103EA00002231943018470470A460021018C4FF216
:103EB000FF7319404FF6FF7303EA0223194301848D
:103EC00070470A460021018C4DF6FF7319404FF6EA
:103ED000FF7303EA023319430184704730B50023AE
:103EE00001248C40A3B2048C9C430484048C02FA09
:103EF00001F5ADB22C43048430BD30B50023042459
:103F00008C40A3B2048C9C430484048C02FA01F517
:103F1000ADB22C43048430BD828B4FF2FF331A4084
:103F20008283828B4FF6FF7303EA01231A43828355
:103F30007047F0B50C461546002100220026078C7C
:103F40004EF6FF7C07EA0C070784818B028C4FF644
:103F5000FF7707EA043640F6FF4739404FF6FF7710
:103F600007EA052739434FF6FF7707EA0337394356
:103F700045F6FF773A4046F480573A4381830284FE
:103F8000F0BD828B4FF6F3731A408283828B0A4313
:103F900082837047F0B50C461546002100220026AA
:103FA000078C4FF6FF6C07EA0C070784818B028CA5
:103FB0004FF6FF7707EA04264FF60C7739404FF6A5
:103FC000FF7707EA03172F4339434FF2FF573A4071
:103FD00046F480773A4381830284F0BD028B4FF22E
:103FE000FF331A400283028B4FF6FF7303EA01236B
:103FF0001A4302837047F0B50C4615460021002293
:104000000026078C4FF6EF7C07EA0C070784018B2C
:10401000028C4FF6FF7707EA041640F6FF47394057
:104020004FF6FF7707EA033739434FF6FF7703E090
:10403000000001400004014007EA052739434FF61C
:104040005F773A4046F010073A4301830284F0BD9F
:10405000028B4FF6F3731A400283028B0A430283EA
:104060007047F0B50C46154600210022068C4FF62D
:10407000FE773E400684018B028C4FF60C76314071
:104080007E1C06EA03162E4331434FF6F576324086
:1040900044F00106324301830284F0BD70B5054649
:1040A0000C46208850B92389A28861882846FFF7EA
:1040B000D8FFE1882846FFF7CBFF25E020880428B9
:1040C0000AD12389A28861882846FFF794FFE188F6
:1040D0002846FFF783FF17E0208808280AD12389A4
:1040E000A28861882846FFF755FFE1882846FFF738
:1040F00048FF09E02389A28861882846FFF719FF55
:10410000E1882846FFF708FF70BD0021018041804B
:10411000012181800021C180018170472DE9F0419A
:1041200005460C4600260127608808B9022600E0F3
:104130000026A088012801D1022700E0012720885D
:10414000A0B92389A28861882846FFF78AFFE18801
:104150002846FFF77DFF23893A4631462846FFF778
:104160004AFFE1882846FFF739FF13E02389A28838
:1041700061882846FFF73FFFE1882846FFF72EFFBA
:1041800023893A4631462846FFF76BFFE1882846E7
:10419000FFF75EFFBDE8F0810146486B70470146BE
:1041A000886B70470146C86B70470146086C7047C2
:1041B0000A884B881A438B881A43CB881A430B8989
:1041C0001A434B891A438B891A43A0F8442070473D
:1041D0000021018041808180C180018141818181F4
:1041E000704731B1B0F8442042F40042A0F84420B6
:1041F00005E0B0F84420C2F30E02A0F84420704756
:1042000021B1828842F00402828004E082884FF665
:10421000FB731A408280704721B1828842F001020C
:10422000828004E082884FF6FE731A4082807047D5
:104230001AB183890B43838102E083898B43838195
:1042400070478182704702460020138A0B400BB1F1
:10425000012000E000207047CA430282704730B559
:104260000246002000230024158A05EA01039589EF
:1042700005EA010413B10CB1012000E0002030BDBB
:10428000CA430282704741EA0203A0F848307047EF
:104290001AB183890B43838102E083898B43838135
:1042A000704721B1828842F00802828004E082884F
:1042B0004FF6F7731A408280704701894FF6F87203
:1042C0001140018170470A46002101894FF68F7322
:1042D000194011430181704730B504460D46294607
:1042E0002046FFF7F0FF208940F00700208130BD15
:1042F0002DE9F04104460D4616461F46602D06D1B5
:104300003B46012231462046FFF775FE05E03B465D
:10431000012231462046FFF7A4FE29462046FFF73A
:10432000D2FF208940F007002081BDE8F08130B540
:104330000C4600210189C9B24FF6FF7505EA032535
:10434000154325432943018130BD2DE9F041054640
:104350000E4617469846002443463A4631462846BC
:10436000FFF7E5FF2C894FF6F870044044F007048E
:104370004FF68F70044044F070042C81BDE8F0814A
:10438000F0B504460D4616461F463B4632462946C2
:104390002046FFF7CCFF208940F480402081F0BD0B
:1043A00082884FF68F731A40828082880A43828007
:1043B000704702894FF6F8731A40028102890A4356
:1043C0000281704702894FF67F731A400281028989
:1043D0000A4302817047F0B50C4615461E4600217F
:1043E000002200230189028B038C4FF6F8773940B5
:1043F00021434FF6FC473A4040F201173A434FF64B
:10440000DD773B404FF6FF7707EA06172F433B4324
:10441000018102830384F0BD21B1828842F08002D1
:10442000828004E082884FF67F731A408280704752
:10443000A0F850107047000008B50022009200203C
:104440000021CA22F94B1A6053221A60F74A183A1F
:10445000126822F0A002F54B183B1A6000BFF34A25
:10446000183A126802F02001009A521C0092009A39
:10447000B2F5003F01D00029F1D0EC4A183A126899
:1044800002F020020AB1012000E00020FF22E74BE9
:104490001A6008BD08B50022009200200021E34AFE
:1044A000183A126802F04002E2B9421EDF4B183B94
:1044B0001A6000BFDD4A183A126802F04001009A03
:1044C000521C0092009AB2F5803F01D00029F1D031
:1044D000D64A183A126802F040020AB1012002E0FE
:1044E000002000E0012008BD38B500200090002425
:1044F0000025CA20CD49086053200860FFF7CAFF95
:1045000000B952E00020C9492439086042F2011084
:10451000091D0860081D006800F00700091D0860FB
:1045200000BFC2481838006800F004040098401C1E
:1045300000900098B0F5803F01D0002CF1D0BB482E
:104540001838006800F0040008B900252DE0B748CD
:104550001C3800680020B5491C3908604FF6FF7010
:10456000B24910390860B248091F08600020AF49FD
:104570000C390860091D0860091D0860AB49083145
:104580000860AA4918310860A84920310860091D4F
:104590000860A64918390860A4491C310860FFF773
:1045A0004BFF08B9002500E00125FF209F49086066
:1045B000284638BD9D481838006820F080009B4987
:1045C00018390860704730B504460025CA2097495D
:1045D000086053200860FFF75DFF00B91DE09348B5
:1045E0001C38006820F0400090491C3908600846DB
:1045F0000068216808438D491C3908608B491439CB
:10460000A068086008460068A18840EA0140874920
:1046100014390860FFF7CEFF0125FF2083490860A9
:10462000284630BD002101607F214160FF2181606B
:10463000704718B1FF217D4A116004E0CA217B4A0E
:10464000116053211160704730B504460025CA201F
:104650007649086053200860FFF71CFF00B914E09A
:1046600044B172481C38006840F010006F491C3992
:10467000086007E06D481C38006820F010006B49A6
:104680001C390860FFF796FF0125FF206749086085
:10469000284630BDCA21654A11605321116040B1DE
:1046A00062491C39096841F02001604A1C3A1160D6
:1046B00007E05E491C39096801F0DF015B4A1C3ADA
:1046C0001160FF21594A116070470146002204E041
:1046D000501CC2B2A1F10A00C1B20A29F8DA1007CF
:1046E00041EA10607047014600BF080900EB8000F6
:1046F000420001F00F001044C0B270472DE9F041B4
:1047000005460C460026002755B948481C38006865
:1047100000F0400000B102E00020E07000BF0EE0B9
:1047200042481C38006800F0400020B12078FFF7B4
:10473000DAFF064602E00020E07000BF00BF55B17E
:1047400020780004617840EA0120A1780843E178EC
:1047500040EA014611E02078FFF7B7FF4FEA004832
:104760006078FFF7B2FF48EA0028A078FFF7ADFFB6
:1047700048EA0008E07848EA0046CA202B49086069
:1047800053200860FFF786FE08B9002714E0294887
:104790003040264924390860FFF70CFF23481C38B5
:1047A000006800F0200030B9FFF746FE08B9002786
:1047B00002E0012700E00127FF201C49086038467D
:1047C000BDE8F0810021C1700170417081707047B7
:1047D00070B506460C460025144824380068154973
:1047E00000EA0105C5F305402070C5F3062060709E
:1047F00005F07F00A07005F48000000CE0705EB949
:104800002078FFF770FF20706078FFF76CFF607012
:10481000A078FFF768FFA07070BD00200349091D54
:1048200008680249203909687047000024280040C0
:10483000FF007F007F7F7F002DE9F04105460C4699
:10484000002600274DB9607800F01000102804D130
:10485000607820F010000A30607005B908E06078D8
:10486000FFF741FF0646A078FFF73DFF064600BF71
:1048700055B1E0780004617840EA0120A17808434E
:10488000217840EA413611E0E078FFF71EFF4FEA59
:1048900000486078FFF719FF48EA0028A078FFF782
:1048A00014FF48EA0008207848EA4036CA20FE494A
:1048B000086053200860FFF7EDFD08B9002714E0F9
:1048C000FA483040F84920390860FFF773FEF6488F
:1048D0001C38006800F0200030B9FFF7ADFD08B9C2
:1048E000002702E0012700E00127FF20EE490860D1
:1048F0003846BDE8F08101210170817041700021CE
:10490000C170704770B506460C460025E648203851
:104910000068E64900EA0105280CE070C5F30420B0
:10492000607005F03F00A070C5F3423020705EB9A2
:10493000E078FFF7D8FEE0706078FFF7D4FE607093
:10494000A078FFF7D0FEA07070BD2DE9F0410546BC
:104950000E46144600276DB9D3481C38006800F095
:10496000400000B102E00020E07000BFA06800B984
:104970001AE019E0CC481C38006800F0400020B173
:104980002078FFF7B0FE074602E00020E07000BF8D
:10499000A06820B9207BFFF7A6FE074604E0207B35
:1049A000FFF7A1FE074600BF95B1207800046178AB
:1049B00040EA0120A1780843E17840EA0140217BE8
:1049C00040EA0160A1680843616840EA01071BE012
:1049D0002078FFF77AFE4FEA00486078FFF775FE0F
:1049E00048EA0028A078FFF770FE48EA0008E0785F
:1049F00048EA0048207BFFF768FE48EA0060A168AB
:104A00000843616840EA0107CA20A74908605320AB
:104A10000860B6F5807F03D1A3480838076002E03C
:104A2000A148001F0760FF209F490860BDE8F08192
:104A30000021C1700170417081708160012101739A
:104A40000021416070472DE9F04106460F461446AB
:104A50000025B7F5807F03D193480838056802E048
:104A60009148001F0568C5F305402070C5F3062076
:104A7000607005F07F00A07005F48000000CE0700D
:104A8000C5F30560207305F08040A06005F080301C
:104A900060607EB92078FFF726FE20706078FFF70F
:104AA00022FE6070A078FFF71EFEA070207BFFF74B
:104AB0001AFE2073BDE8F08138B502460024009448
:104AC00000230020CA24784D2C6053242C6041B16F
:104AD000754C1C3C24681443734D1C3D2C60012014
:104AE0001EE0714C1C3C246894436F4D1C3D2C60AF
:104AF00000BF6D4C183C246804EA1223009C641C1F
:104B00000094009CB4F5803F01D0002BF1D0664C9E
:104B1000183C246804EA12240CB9002000E00120AB
:104B2000FF24614D2C6038BD30B50023CA245E4D92
:104B30002C6053242C6041EA0203B0F5807F03D13E
:104B4000594C2034236002E0574C24342360FF2466
:104B5000554D2C6030BD01460020B1F5807F05D158
:104B6000514A20321268C2F30E0004E04E4A243249
:104B70001268C2F30E007047CA214B4A11605321DC
:104B8000116049491C39096821F00701464A1C3A5D
:104B900011601146096801431160FF21424A11600A
:104BA0007047CA21404A1160532111603E491039B3
:104BB0000860FF21116070473B481038006880B2E0
:104BC000704718B501460023009300220020CA2335
:104BD000354C23605323236049B1334B1C3B1B6886
:104BE00043F48063304C1C3C236001201FE02E4BBB
:104BF0001C3B1B6823F480632B4C1C3C236000BFD0
:104C0000294B183B1B6803F00402009B5B1C0093BC
:104C1000009BB3F5803F01D0002AF1D0224B183B16
:104C20001B6803F004030BB9002000E00120FF2300
:104C30001D4C236018BDCA221B4B1A6053221A60F8
:104C4000194A1C3A126822F48022174B1C3B1A6046
:104C50001A46126840EA01031A43134B1C3B1A60C0
:104C6000FF22114B1A6070470F481C38006800F48F
:104C700080207047CA220C4B1A6053221A600A4ADD
:104C80001C3A126822F4E002074B1C3B1A601A46D9
:104C9000126840EA01031A43034B1C3B1A60FF22CF
:104CA000014B1A6070470000242800403FFFFF00BE
:104CB00070B504460D460026CA20F6490860532008
:104CC0000860FFF7E7FB00B907E044EA0500F14997
:104CD0000C390860FFF76EFC0126FF20ED490860E3
:104CE000304670BD30B504460025CA20E949086049
:104CF00053200860FFF7CEFB00B914E044B1E5484B
:104D00001C38006840F08000E2491C39086007E068
:104D1000E0481C38006820F08000DE491C3908603B
:104D2000FFF748FC0125FF20DA490860284630BD1E
:104D3000CA21D84A11605321116040B1D5491C39AC
:104D4000096841F40001D34A1C3A116007E0D149D7
:104D50001C39096821F40001CE4A1C3A1160FF2178
:104D6000CC4A11607047CA21CA4A116053211160B0
:104D7000C8491C39096821F40021C64A1C3A11604F
:104D80001146096801431160FF21C24A1160704752
:104D900070B5034600200024CA25BE4E3560532559
:104DA0003560BC4D183D2D6805F4803555B100E0E7
:104DB000641CB84D183D2D6805F4803515B1B4F567
:104DC000003FF5D1B34D183D2D6805F480353DB950
:104DD00043EA01051543AF4E18363560012000E067
:104DE0000020FF25AB4E356070BD10B50A4600218E
:104DF000A84B1C3B1B6840F6080423EA04011AB1C7
:104E000040F40063194300E00143CA23A14C23602E
:104E1000532323609F4B1C3B1960FF23236010BD6D
:104E20002DE9F04180460C4615460026002799489A
:104E30000C300068984900EA010696481030006876
:104E4000964900EA0107C6F305402070C6F3062024
:104E5000607006F07F00A07006F48000000CE07027
:104E60000020E870C7F30420687007F03F00A870C6
:104E7000C7F342302870B8F1000F17D12078FFF740
:104E800032FC20706078FFF72EFC6070A078FFF78E
:104E90002AFCA0706878FFF726FC6870A878FFF7F6
:104EA00022FCA8702878FFF71EFC2870BDE8F0816E
:104EB000784814300068704741B9764A1C3212684D
:104EC00022EA4002734B1C331A6007E0714A1C321D
:104ED000126842EA40026F4B1C331A60704739B1C6
:104EE0006C4A1C32126802436A4B1C331A6006E09B
:104EF000684A1C3212688243664B1C331A60704742
:104F000064491C31096821F4C051624A1C321160A5
:104F1000114609680143116070475E491C310968F8
:104F200021F4E0615B4A1C321160114609680143BB
:104F30001160704757491C31096821F4C041554A36
:104F40001C3211601146096801431160704740B17D
:104F500050491C31096841F080014E4A1C321160F1
:104F600007E04C491C31096821F08001494A1C3294
:104F70001160704740B147491C31096821F4004174
:104F8000444A1C32116007E042491C31096841F46F
:104F90000041404A1C321160704708B5002200925F
:104FA0003C4A2C320092009A02EB80020092009A56
:104FB000116008BD08B501460020009035482C302E
:104FC0000090009800EB810000900098006808BDF8
:104FD00030491C31096821F480312E4A1C3211609D
:104FE000114609680143116070472A491C3109685C
:104FF00021F40031274A1C3211601146096801432F
:105000001160704723491C31096821F48021214A2D
:105010001C32116011460968014311607047F0B5F8
:1050200004460D4600270026CA201A49086053206E
:10503000086018481838006800F0080050B100E017
:10504000761C14481838006800F0080010B1B6F556
:10505000805FF5D10F481838006800F0080098B953
:105060000C481C38006800F0100058B945EA0400EC
:10507000084908310860FFF7DFF908B9002704E0A4
:10508000012702E0002700E00027FF200149086017
:105090003846F0BD242800407F7F7F003FFFFF009F
:1050A000CA223D4B1A6053221A6091B13A4A1C3A07
:1050B000126820F004031A43374B1C3B1A60364A2F
:1050C0001C32126800F004031A43334B1C331A607D
:1050D00011E0314A1C3A126820F004039A432E4B27
:1050E0001C3B1A602C4A1C32126800F004039A43DD
:1050F000294B1C331A60FF22274B1A60704710B5EA
:10510000014600200022244B183B1B68234C03EA75
:10511000040202EA01030BB1012000E0002010BDEF
:1051200081B241F080011C4A183A126802F08002F4
:1051300062EA0101184A183A1160704730B5014619
:10514000002000220023144C1C34246804F00402C4
:10515000114C1C3C24680C4002EAD13544EA05039A
:105160000D4C183C246804EA11121BB194B20CB126
:10517000012000E0002030BD002101098AB242F088
:105180008002054B183B1B6803F0800363EA0202B0
:10519000014B183B1A607047242800407F3F0100F4
:1051A000002041490860091D0860091D0860091DAB
:1051B00008603E483C4914310860704700213A4974
:1051C0008279002A3AD00A46126803689A430B464D
:1051D0001A600A1D126803689A430B1D1A6002794F
:1051E00011440A6803681A430A602F4A0832126899
:1051F00003689A432C4B08331A601A1D126803681F
:105200009A43294B0C331A604279102A0ED11A1F87
:10521000126803681A43244B08331A601A1D126877
:1052200003681A43204B0C331A600DE01E49427983
:1052300011440A6803681A430A6005E002791144C0
:105240000A6803689A430A6070470021016001718F
:105250000C21417100218171704713491031096897
:105260000143114A103211607047014600200E4A76
:10527000143212680A400AB1012000E00020704791
:10528000094914310860704701460020064A14326B
:1052900012680A400AB1012000E00020704702496C
:1052A0001431086070470000003C0140FFFF7F00A0
:1052B00010B501210807FDF78DFF00214FF0805048
:1052C000FDF788FF10BD5249086270470146002073
:1052D000504A106820F0E0000843106070474C49C5
:1052E000086170474A49A031086070474849A431B5
:1052F0000860704701460020464A106820F440408C
:105300000843106070474249086470474049486448
:10531000704730B13F49096841F440213D4A11606E
:1053200005E03C49096821F440213A4A1160704780
:1053300018B10121364AD16202E00021344AD1621B
:10534000704718B10121324A916202E00021304ACF
:10535000916270472E494862704710B5024600209E
:105360002C4B186840F6034398431043294B1860B0
:10537000294B1B6843F00403274C2360012901D10A
:1053800030BF00E020BF244B1B6823F00403224CF5
:10539000236010BD10B5024600201E4B186840F671
:1053A0000343984310431B4B18601B4B1B6843F08F
:1053B0000403194C2360012901D130BF00E020BF54
:1053C000154B1B6823F00403134C236010BD1148D8
:1053D000006840F002000F4908600F48006840F084
:1053E00004000D49086000BF00BF30BF7047014690
:1053F0000020084A52680A400AB1012000E000205B
:1054000070470449096841EA8001024A1160704707
:1054100000000E420070004010ED00E070470000F8
:105420000FB4044910B503AA029800F095F910BC16
:105430005DF814FB680100200FB41CB5074B06AAE9
:105440007B4469460090059800F06DF9002069469C
:1054500000F07CF91CBC5DF814FB0000090300009F
:1054600070B5044685690068C10601D5302600E0A4
:105470002026C00707D070BDD4E9012130469047EF
:10548000206A401C20626D1EF6D570BD70B50446C2
:1054900085690078C00707D170BDD4E901212020BB
:1054A0009047206A401C20626D1EF6D570BD00003A
:1054B0002DE9F0410646002410687529314616A5ED
:1054C00010D0AFF30080002802DA404213A507E0B5
:1054D00031688A0701D512A502E0490704D511A554
:1054E000012401E0AFF3008000210A2206F1240725
:1054F00009E0B0FBF2FCB0FBF2F302FB1C00303021
:1055000078541846491C0028F3D123462A463046D1
:10551000BDE8F04100F0A8B8000000002D00000038
:105520002B000000200000002DE9F05F89460446B2
:105530004FF0000ADFF824B1FB44C0F820A0204659
:10554000E168884700287DD0252806D0D4E90121CC
:105550009047206A401C2062F1E700255F46204604
:10556000E16888472028064607DB312E05D2B819A6
:1055700010F8200C08B10543F1E7A80701D525F084
:105580000405C4F81CA00027C4F818A02A2E09D0CE
:10559000304600F029F938B304EB8708303EC8F8EC
:1055A000186019E059F8041B204604EB870291614A
:1055B000E1688847012F064618D1E069002820DA03
:1055C00025F020051DE0D8F8180000EB800006EB60
:1055D00040003038C8F818002046E1688847064681
:1055E00000F002F90028EED1012F0AD02E2E08D1AA
:1055F0002046E16888477F1C0646022F45F02005BB
:10560000C4DBA069002803DA404245F00105A0612F
:10561000E80701D025F01005A6B1A6F14100192830
:1056200002D8203645F400654A46314620462560BA
:105630004D46FAF703FE60B1012807D0ED1D25F0B5
:10564000070000E007E000F1080978E705F1040928
:1056500075E730467AE7206ABDE8F09FF8E8010078
:1056600070477047704770472DE9F0470D469946DF
:105670009246044600F124080168880604D5E069D2
:1056800021F01001216000E00120A84201DD471B4C
:1056900000E00027A1697A1902EB0900081AA0614D
:1056A0002078C00602D42046FFF7DAFE002608E084
:1056B000D4E901211AF806009047206A401C761CA4
:1056C00020624E45F4DB2078C0060AD52046FFF75D
:1056D000C7FE06E0D4E9012130209047206A401C33
:1056E0002062381EA7F10107F4DC07E0D4E90121AC
:1056F00018F805009047206A401C2062281EA5F17A
:105700000105F3DC2046FFF7C1FE2078000602D534
:105710000220BDE8F0870120FBE7000001694A1C78
:1057200002610878704700B58FB0CDE901310021E2
:10573000059105497944CDE9031011466846FFF704
:10574000F3FE0FB000BD0000E5FFFFFF0A6802F89E
:10575000010B0A6070470000074B70B50D467B4493
:10576000FFF7E1FF0446284600F008F810B14FF0BB
:10577000FF3070BD204670BD89D0FFFF007B00F078
:1057800080007047754600F02BF8AE46050069466C
:10579000534620F00700854618B020B5FDF7D6F82F
:1057A000BDE820404FF000064FF000074FF0000822
:1057B0004FF0000B21F00701AC46ACE8C009ACE8A3
:1057C000C009ACE8C009ACE8C0098D46704710B507
:1057D0000446AFF300802046BDE81040FAF742BD12
:1057E000004870477002002030380A2801D201209A
:1057F0007047002070474FF04070E1EE100A70478C
:105800000000000000000000000000000000000098
:105810000000000000000000000000000000000088
:105820000000000000000000000000000000000078
:105830000000000000000000000000000000000068
:105840000000000000000000000000000000000058
:105850000000000000000000000000000000000048
:1058600000000000000000210021002000000000D6
:1058700008200000000100210022004300430043F3
:1058800000430043006300220022000108010821B8
:1058900000000000002000210021000000000000A6
:1058A00000000000000000000000000000000000F8
:1058B00000000000000000000000000000000000E8
:1058C00000000000000000000000000000000000D8
:1058D00000000000000000000000000000000000C8
:1058E00000000000000000000000000000000000B8
:1058F00000000000000000000000000000000000A8
:105900000000000000000000000000000000000097
:105910000000000000000000000000000000000087
:105920000000000000000000000000000000000077
:105930000000000000000000000000000000000067
:105940000000000000000000000000000000000057
:105950000000000000000000000000000000000047
:1059600000000001002200220023004401281A8DBB
:105970002BF434D72CF81CF914FB151C151C151B23
:10598000151B153B151B1D1B24FA34FA3CB833D4E8
:1059900022AF012900630042000100010000000065
:1059A00000000000000000000000000000000000F7
:1059B00000000000000000000000000000000000E7
:1059C00000000000000000000000000000000000D7
:1059D00000000000000000000000000000000000C7
:1059E00000000000000000000000000000000000B7
:1059F00000000000000000000000000000000000A7
:105A00000000000000000000000000000000000096
:105A10000000000000000000000000000000000086
:105A20000000000000000000000000000000000076
:105A30000000000000000000000000000000000066
:105A40000000000000000000000000000000000056
:105A500000000020000000000000002000200000E6
:105A6000004201272B932CD924FB1D1C0D3C053D26
:105A7000053E053D055D055D055D055E055E055D53
:105A8000055D055D055D055D055D059D055E055EC4
:105A9000053D0D3C0D3B1D1A24F9239201270022E0
:105AA00000000020002000000000000000000000B6
:105AB00000000000000000000000000000000000E6
:105AC00000000000000000000000000000000000D6
:105AD00000000000000000000000000000000000C6
